:020000040800F2
:10000000C05300204102000865310008F92C0008A7
:10001000613100081D0D0008674E00080000000057
:10002000000000000000000000000000A90100081E
:10003000A70D000800000000ED010008ED460008D3
:100040005B0200085B0200085B0200085B0200081C
:100050005B0200085B0200085B0200085B0200080C
:100060005B0200085B020008AD1E00085B0200088E
:100070005B0200085B0200085B0200085B020008EC
:100080005B0200085B0200085B0200085B020008DC
:100090005B0200085B0200085B020008BF1E00084C
:1000A0005B0200085B0200085B0200085B020008BC
:1000B000814700085B020008BD4700085B0200089A
:1000C0005B0200085B0200085B0200085B0200089C
:1000D0005B020008A14B0008294C0008954C000861
:1000E0005B0200085B0200085B02000800F002F8F7
:1000F00000F04BF80AA090E8000C82448344AAF177
:100100000107DA4501D100F040F8AFF2090EBAE874
:100110000F0013F0010F18BFFB1A43F0010318473B
:10012000506E0000706E0000103A24BF78C878C18D
:10013000FAD8520724BF30C830C144BF04680C60ED
:10014000704700000023002400250026103A28BF35
:1001500078C1FBD8520728BF30C148BF0B60704739
:10016000642900F0FF80752900F0FC80782900F0F8
:100170003581632900F03183732900F03683002034
:1001800070471FB51FBD10B510BD00F049FB1146EB
:10019000FFF7F7FF05F034F900F067FB03B4FFF752
:1001A000F2FF03BC05F063F8224B19680868B0E859
:1001B000F00F80F30988BFF36F8F4FF0000080F3DA
:1001C00011884EF00D0E70470000000006480068D0
:1001D000006880F3088862B661B6BFF34F8FBFF343
:1001E0006F8F00DF00BF00BF08ED00E0EFF3098074
:1001F000BFF36F8F0F4B1A6820E9F00F106008B53E
:100200004FF0BF0080F31188BFF34F8FBFF36F8FA4
:1002100005F07CFF4FF0000080F31188BDE8084036
:1002200019680868B0E8F00F80F30988BFF36F8F92
:10023000704700BF8C000020EFF30580704700007E
:100240000948804709480047FEE7FEE7FEE7FEE76A
:10025000FEE7FEE7FEE7FEE7FEE7FEE704480549A6
:10026000054A064B7047000021470008ED000008D2
:10027000C04D0020C0530020C04F0020C04F0020C0
:10028000704700000FB4044910B503AA029800F0AB
:10029000B1FA10BC5DF814FB2C0000200FB41CB5A3
:1002A000074B06AA7B4469460090059800F073FA54
:1002B0000020694600F082FA1CBC5DF814FB0000C7
:1002C0001505000070B5044685690068C10601D5B2
:1002D000302600E02026C00707D070BDD4E90121F8
:1002E00030469047206A401C20626D1EF6D570BDD6
:1002F00070B5044685690078C00707D170BDD4E9A0
:10030000012120209047206A401C20626D1EF6D5F6
:1003100070BD70B50C460546012A05D028788006C8
:1003200000D5EA69002302E0012305E05B1C93424B
:1003300002D2E05C0028F9D1A869E618C01AA861C9
:10034000286A184428622846FFF7BCFF04E0D5E974
:10035000012114F8010B9047B442F8D32846FFF767
:10036000C7FF70BD2DE9F0410646002410687529CD
:10037000314616A510D0AFF30080002802DA4042C3
:1003800013A507E031688A0701D512A502E04907E5
:1003900004D511A5012401E0AFF3008000210A2259
:1003A00006F1240709E0B0FBF2FCB0FBF2F302FB1C
:1003B0001C00303078541846491C0028F3D12346DD
:1003C0002A463046BDE8F04100F086B90000000042
:1003D0002D0000002B0000002000000070B5044636
:1003E0000D4621461068AFF300802188090502D52B
:1003F0000F4A7A4402E00E4A7A440E32002104F198
:10040000240305E000F00F060009965D5E54491CC8
:100410000028F7D120780023000704D5702D02D0E2
:1004200009B1022311322046BDE8704000F054B9F2
:10043000066B00002DE9F05F894604464FF0000A84
:10044000DFF824B1FB44C0F820A02046E1688847CB
:1004500000287DD0252806D0D4E901219047206AC4
:10046000401C2062F1E700255F462046E16888478E
:100470002028064607DB312E05D2B81910F8200CCB
:1004800008B10543F1E7A80701D525F00405C4F834
:100490001CA00027C4F818A02A2E09D0304604F06A
:1004A000DFFE38B304EB8708303EC8F8186019E067
:1004B00059F8041B204604EB87029161E1688847E4
:1004C000012F064618D1E069002820DA25F0200522
:1004D0001DE0D8F8180000EB800006EB4000303833
:1004E000C8F818002046E1688847064604F0B8FEC0
:1004F0000028EED1012F0AD02E2E08D12046E16827
:1005000088477F1C0646022F45F02005C4DBA06902
:10051000002803DA404245F00105A061E80701D058
:1005200025F01005A6B1A6F14100192802D8203601
:1005300045F400654A463146204625604D46FFF7A2
:100540000FFE60B1012807D0ED1D25F0070000E087
:1005500007E000F1080978E705F1040975E730467E
:100560007AE7206ABDE8F09FDC6A000030B50546F6
:100570000B462A4613F8014B12F8010B08B1A042B2
:10058000F8D01CB1002802D06D1CF1E7284630BD20
:1005900040EA010310B59B070FD1042A0DD310C800
:1005A00008C9121F9C42F8D020BA19BA884201D952
:1005B000012010BD4FF0FF3010BD1AB1D30703D09A
:1005C000521C07E0002010BD10F8013B11F8014B50
:1005D0001B1B07D110F8013B11F8014B1B1B01D16C
:1005E000921EF1D1184610BD10B5431C02E010F860
:1005F000011B71B18107FAD14FF0013202C88C1A88
:100600008C4314EAC211F9D0C01A0A0603D0C01EE6
:1006100010BDC01A10BD0A0401D0801E10BD090211
:10062000FCD0401E10BD421E12F8013F002BFBD132
:1006300011F8013B002B02F8013BF9D170474FF054
:1006400000020429C0F0128010F0030C00F01B809F
:10065000CCF1040CBCF1020F18BF00F8012BA8BFAD
:1006600020F8022BA1EB0C0100F00DB85FEAC17C71
:1006700024BF00F8012B00F8012B48BF00F8012B24
:1006800070474FF0000200B5134694469646203955
:1006900022BFA0E80C50A0E80C50B1F12001BFF43B
:1006A000F7AF090728BFA0E80C5048BF0CC05DF8A1
:1006B00004EB890028BF40F8042B08BF704748BFEF
:1006C00020F8022B11F0804F18BF00F8012B704763
:1006D00070477047704770472DE9F0470D469946BF
:1006E0009246044600F124080168880604D5E069B2
:1006F00021F01001216000E00120A84201DD471B2C
:1007000000E00027A1697A1902EB0900081AA0612C
:100710002078C00602D42046FFF7D4FD002608E06A
:10072000D4E901211AF806009047206A401C761C83
:1007300020624E45F4DB2078C0060AD52046FFF73C
:10074000C1FD06E0D4E9012130209047206A401C19
:100750002062381EA7F10107F4DC07E0D4E901218B
:1007600018F805009047206A401C2062281EA5F159
:100770000105F3DC2046FFF7BBFD2078000602D51B
:100780000220BDE8F0870120FBE7000001694A1C58
:1007900002610878704700B58FB0CDE901310021C2
:1007A000059105497944CDE9031011466846FFF7E4
:1007B00041FE0FB000BD0000E5FFFFFF0A6802F830
:1007C000010B0A60704710B5436913B1AFF30080A5
:1007D00001E0FFF79EFD012010BD127800F1240119
:1007E0000A7000224A700122EDE711684FF0FF32D3
:1007F000E9E70000074B70B50D467B44FFF7CBFFE0
:100800000446284600F008F810B14FF0FF3070BDE4
:10081000204670BDF34A0000007B00F08000704766
:10082000754600F02BF8AE4605006946534620F0A9
:100830000700854618B020B5FFF710FDBDE8204041
:100840004FF000064FF000074FF000084FF0000B8C
:1008500021F00701AC46ACE8C009ACE8C009ACE83F
:10086000C009ACE8C0098D46704710B50446AFF327
:1008700000802046BDE81040FFF790BC004870475C
:10088000604D002000BF0549098801F040010029A2
:10089000F9D00249091D088070470000004400405B
:1008A0001FB50121084603F0A9FA6320ADF808003E
:1008B00041F61F40ADF804000020ADF80A00ADF885
:1008C000060001A94FF0804004F03AF801218807A2
:1008D00003F0A8FF01221146900703F0C3FF002197
:1008E0004FF0804003F0A1FF1C208DF80000012094
:1008F0008DF8010000208DF8020001208DF8030022
:10090000684602F03DFC0020014908801FBD000040
:100910004200002010B586B004460121042003F0F7
:100920007DFA0121480403F069FA0420ADF81400AF
:1009300003208DF8160018208DF8170005A91C4813
:1009400001F09CFD0820ADF8140004208DF817007C
:1009500005A9174801F092FD26208DF8000002201D
:100960008DF8010001208DF802008DF80300684623
:1009700002F006FC01940020ADF80800ADF80A0072
:10098000ADF80C00ADF810000C20ADF80E0001A978
:10099000084804F0F3F9012240F22551054804F01B
:1009A000C8F90121034804F081F906B010BD000028
:1009B000000801400044004070B5002601F0FCFD35
:1009C0000546FF2D03D14FA0FFF75CFC70BD97E0FB
:1009D00052A0FFF757FC4FF47A7004F066FC052E26
:1009E00019D2DFE806F00319324D6C0002F073FEF5
:1009F00004466CB9012002F04BFE044624B94CA019
:100A0000FFF740FC012606E0204603F007FE02E067
:100A1000204603F003FE6EE04BA0FFF733FC02F02C
:100A20005AFE04466CB9022002F032FE044624B994
:100A30003FA0FFF727FC022606E0204603F0EEFD6C
:100A400002E0204603F0EAFD55E044A0FFF71AFC5F
:100A500002F02AFF044624B947A0FFF713FC03263F
:100A600009E04AA0FFF70EFC204603F0D7FD284618
:100A700003F0FEFA00264FF4FA7004F016FC3AE098
:100A800047A0FFF7FFFB4FF4FA7004F00EFC02F0F2
:100A900028FF044624B94AA0FFF7F4FB042609E026
:100AA0004EA0FFF7EFFB204603F0B8FD284603F009
:100AB000DFFA00264FF47A7004F0F7FB1BE02946BA
:100AC0004CA0FFF7DFFB2946012002F039FF044666
:100AD0003CB94DA0FFF7D6FB40F2DC5004F0E5FB3B
:100AE00074E74EA0FFF7CEFB204603F097FD2846A3
:100AF00003F0BEFA00BF00BF4FF4C87004F0D5FB8E
:100B000066E700006D656920796F75206B65207957
:100B10006F6E67204944210D0A00000071696E67FD
:100B200020616E2073686F75207A68690D0A000075
:100B30007A68692077656E207A68656E67206368D9
:100B4000616E670D0A00000071696E67207A616945
:100B500020616E2079692063690D0A00647569203F
:100B60006269206C69616E67206369207A68692018
:100B700077656E0D0A000000647569206269206364
:100B800068656E6720676F6E670D0A00647569207F
:100B9000626920736869206261690D0A00000000C3
:100BA0007368656E67206368656E67207A68692080
:100BB00077656E206D6F2062616E0D0A0000000087
:100BC0007368656E67206368656E67206368656E2D
:100BD0006720676F6E670D0A000000007368656E1E
:100BE00067206368656E6720736869206261690DBC
:100BF0000A0000007875616E207A652049443A2029
:100C000025640D0A000000006C7520727520636871
:100C1000656E6720676F6E670D0A00006C75207245
:100C20007520736869206261690D0A0001480078C7
:100C3000704700004A000020002006490870FF208D
:100C400005490870054908700020054908700549E4
:100C5000087070474A0000204B0000204C00002024
:100C6000530000205400002010B5002280210248CB
:100C700001F09CFC10BD00000020014010B50122D5
:100C80008021024801F092FC10BD000000200140CC
:100C900010B5FFF7F3FF282004F007FBFFF7E4FF90
:100CA00010BD10B500240BE0FFF7E8FF502004F062
:100CB000FCFAFFF7D9FF502004F0F7FA601CC4B229
:100CC000032CF1DB10BD10B502F066F94FF47A7019
:100CD00004F0EBFA02F058F94FF4FA7004F0E5FA78
:100CE00010BD70B5044600250BE002F055F96420F4
:100CF00004F0DBFA02F048F9962004F0D6FA681CFA
:100D0000C5B2A542F1DB70BD10B5FFF7B7FF4FF4D8
:100D1000967004F0CAFAFFF7A7FF10BD00BFFEE708
:100D20002DE9F0410746884615460421052000F0CC
:100D30002DF80021012004F07BFA80210A2003F025
:100D4000EBFB002405E0395D092004F071FA601C1A
:100D5000C4B24445F7DB0321012004F069FAFF2403
:100D600000BF052003F06AF90646601EC4B21CB13C
:100D700006F004000028F4D0222003F05FF9287068
:100D8000212003F05BF96870BDE8F08170B505467D
:100D90000C46284603F052F9064626EA0401284686
:100DA00004F046FA70BD704710B5024902A0FFF783
:100DB00069FA10BDA40100205B52585D2025730D17
:100DC0000A00000070B5012529460AA0FFF75AFA6B
:100DD0000121284602F026FC04461CB90AA0FFF7B0
:100DE00051FA02E0204603F019FC40F2DC5004F016
:100DF0005CFA70BD7368616E206368752049443A7F
:100E00002025640D0A0000007368616E2063687518
:100E1000206368656E6720676F6E670D0A000000CB
:100E200010B503F0EFF800F029FA10BD7CB58A4840
:100E30000078022827D101A9262002F054FF054698
:100E400035B902F033FF002084490870401E7CBD94
:100E500082480078401C81490870084600780328C1
:100E600002DA4FF0FF30F2E700207C4908700320DF
:100E7000794908701E207A4908807AA0FFF702FAA3
:100E80004FF0FF30E3E774480078032812D174482C
:100E90000088002807DD72480088401E70490880DD
:100EA0004FF0FF30D3E700F067FA00206A4908707E
:100EB000401ECCE76848007801281FD101A92620F0
:100EC00002F011FF054635B902F0F0FE002063493B
:100ED0000870401EBBE761480078401C5F490870FD
:100EE00008460078032802DA4FF0FF30AFE7002011
:100EF0005A49087058490870401EA8E701A92620E1
:100F000002F0F1FE054615B14FF0FF309FE701A852
:100F100002F0FBFD10B14FF0FF3098E7002405E030
:100F200001A8005D56490855601CC4B2042CF7DBCB
:100F30000120544908709DF8070000909DF8063084
:100F40009DF805209DF804104FA0FFF79BF9564827
:100F50000078012829D19DF807309DF806209DF8DA
:100F600005109DF8040000F0F5F878B14FA0FFF7E8
:100F700089F904205449087002F098FE012036498E
:100F80000870002048490870012060E74FA0FFF773
:100F900079F905204C49087002F088FE01202E499D
:100FA000087000204049087051E73F480078022847
:100FB00029D19DF807309DF806209DF805109DF871
:100FC000040000F001F978B149A0FFF75BF90620B1
:100FD0003D49087002F06AFE01201F490870002098
:100FE00031490870012032E749A0FFF74BF907208B
:100FF0003549087002F05AFE012017490870002098
:101000002949087023E7002414E0494800EB8401D3
:1010100001A801F073FE58B900F024FA02F046FE70
:1010200002200D49087000200C49087001200EE7CD
:10103000601CC4B23F4800788442E6DB3EA0FFF764
:1010400021F902202049087002F030FE01200249F7
:1010500008700020FBE60000280000202900002086
:101060002A000020436172642072656D6F766564AA
:101070002C206C6F636B20696E2033730D0A0000A7
:101080002300002027000020436172642049443A75
:1010900020253032782025303278202530327820D3
:1010A000253032780D0A000021000020436172646F
:1010B00020616464656420746F2077686974656C6E
:1010C0006973740D0A00000022000020416464204E
:1010D00063617264204641494C202866756C6C201F
:1010E0006F72206475706C6963617465290D0A0004
:1010F000436172642064656C657465642066726F18
:101100006D2077686974656C6973740D0A0000005E
:1011100044656C6574652063617264204641494C86
:1011200020286E6F7420666F756E64290D0A0000AA
:10113000CC0000201A00002044656E6965643A20E6
:101140006E6F7420696E2077686974656C6973745A
:101150000D0A00002DE9F04104460D4616461F46D3
:1011600017480078042802DB0020BDE8F0813B46E8
:1011700032462946204601F037F9FF2801D00020E9
:10118000F3E710480E49097800F821400C49097826
:1011900000EB810045700B480949097800EB81009C
:1011A000867008480649097800EB8100C77004483A
:1011B0000078401C0249087000F0FAF80120D4E7DA
:1011C0001A000020CC0000202DE9F04706460F460B
:1011D000904699464B4642463946304601F004F95E
:1011E0000546FF2D02D10020BDE8F0872C461EE009
:1011F0001649601C11F8200001F82400601C01EB66
:101200008000407801EB840148701049601C01EBBC
:101210008000807801EB840188700C49601C01EB30
:101220008000C07801EB8401C870601CC4B208481B
:101230000078401EA042DBDC05480078401E0449CF
:10124000087000F0B5F80120CEE70000CC000020C7
:101250001A000020024908780021014A11707047E5
:10126000220000200348007808B900207047024897
:10127000FCE70000270000202300002070B586B0A6
:101280001322002101A803F051FE9DF805009DF8EE
:10129000041040EA01264AF2A550864207D020A059
:1012A000FEF7F0FF00202749087006B070BD9DF8DA
:1012B0000650042D00DD0425002427E0032000EB68
:1012C000840001A9085C204901F82400032000EBF8
:1012D0008400401C01A9085C1B4901EB8401487093
:1012E000032000EB8400801C01A9085C164901EB77
:1012F00084018870032000EB8400C01C01A9085CF5
:10130000114901EB8401C870601CC4B2AC42D5DB4A
:101310000C48057029460DA0FEF7B4FF2846C4E727
:10132000466C6173683A206E6F2076616C69642048
:1013300077686974656C6973742C20656D70747955
:101340000D0A00001A000020CC000020466C6173DA
:10135000683A206C6F616465642025642063617263
:10136000642873292066726F6D2077686974656CD4
:101370006973740D0A00000010B506A0FEF782FF25
:10138000002003F099F8002003F0ACF8032007498F
:10139000087010BD436172642072656D6F7665647C
:1013A0002C206C6F636B0D0A0000000022000020EF
:1013B00030B585B0A5208DF800008DF801002048DB
:1013C00000788DF80200002427E01E4810F8241051
:1013D000032000EB84000DF800101A4800EB840095
:1013E0004178032000EB8400401C0DF800101548E4
:1013F00000EB84008178032000EB8400801C0DF852
:101400000010104800EB8400C178032000EB84003A
:10141000C01C0DF80010601C84B20948007884429A
:10142000D3DB07480078032101EB8005002003F09F
:101430001DFD2A460021684603F0ECFD05B030BDD5
:101440001A000020CC000020034908700021034A44
:101450001170034A117070472100002028000020FD
:101460002900002010B509A0FEF70CFF5A2003F058
:1014700023F8012003F036F80320094908701E20E4
:101480000849088001200849087010BD4D61746347
:1014900068204F4B2C20756E6C6F636B0D0A00003B
:1014A000280000202A000020220000202DE9F0431F
:1014B000B3B00026B146A3A0FEF7E4FE002413E07B
:1014C00000F01EFBA8A000F0EFFB4FF47A7003F0D1
:1014D000ECFEA7A1A74800F051FC18B1A6A0FEF7AA
:1014E000D1FE03E0601CC4B2052CE9DB00BF052C73
:1014F00008DBA5A0FEF7C6FEFFF7E5FB002033B032
:10150000BDE8F08300F0FCFAACA000F0CDFB4FF496
:101510007A7003F0CAFEADA0FEF7B4FEFFF744FCFC
:10152000AD4903C9CDE93101AB49083103C9CDE962
:101530002F0100F0E5FAA9A000F0B6FB4FF4FA6025
:1015400003F0B3FE002554E031A850F82510A6A002
:10155000FEF798FE002747E000F0D2FA2FA850F8D7
:10156000253031A850F82520A3A10FA8FEF796FE3C
:101570000FA800F099FB4FF0000816E0642003F07C
:1015800094FEA3A17B4800F0F9FB48B9A3A17948D8
:1015900000F0F4FB20B9A3A1764800F0EFFB00B106
:1015A00006E008F101001FFA80F8B8F1500FE5DB02
:1015B00000BF9EA0FEF766FEFFF7F6FB94A16D4804
:1015C00000F0DCFB38B101269BA0FEF75BFE022099
:1015D000FFF787FB0AE09EA0FEF754FE4FF47A70F7
:1015E00003F063FE781CC7B2022FB5DB00BF681C96
:1015F000C5B2022D01DA002EA6D046B999A0FEF799
:1016000041FEFFF760FBFFF75EFB002077E700F08D
:1016100077FA9CA000F048FB4FF4487003F045FEB9
:10162000002441E000F06CFA9AA000F03DFB40F687
:10163000B83003F03AFEA1A0FEF724FEFFF7B4FB9A
:10164000A1A14C4800F09AFBB8B1A1A1494800F013
:1016500095FB90B973A1474800F090FB68B9A0A131
:10166000444800F08BFB40B94FF001099DA0FEF704
:1016700009FE0320FFF735FB18E0A0A13D4800F06C
:101680007DFB40B14FF001099EA0FEF7FBFD03205A
:10169000FFF727FB0AE0A3A0FEF7F4FD4FF4FA6082
:1016A00003F003FE601CC4B2052CBBDB00BFB9F124
:1016B000000F0AD1A0A0FEF7E5FDFFF704FBFFF73E
:1016C00002FBFFF700FB002019E7A2A3A3A2ACA135
:1016D00001A8FEF7E3FD01A9AFA0FEF7D3FD01A825
:1016E00000F0EEFAD8B14FF47A7003F0DEFDAEA050
:1016F000FEF7C8FDFFF758FBAEA11E4800F03EFB09
:1017000030B1AFA0FEF7BEFD0420FFF7EAFA13E008
:10171000B2A0FEF7B7FD0420FFF7E3FA0CE0BDA08E
:10172000FEF7B0FDFFF7CFFAFFF7CDFAFFF7CBFAE0
:10173000FFF7C9FA0020E2E6BEA0FEF7A3FD0120F4
:10174000DDE600000D0A3D3D3D3D20455350383259
:10175000363620496E6974205374617274203D3DA1
:101760003D3D0D0A0000000041540D0A000000003C
:101770004F4B0000A40100205B4F4B5D20415420E3
:10178000746573740D0A00005B4641494C5D20414D
:1017900054206E6F20726573706F6E73652C2063BA
:1017A0006865636B20626175642F706F7765722F57
:1017B000776972696E670D0A0000000041542B437F
:1017C000574D4F44453D330D0A0000005B43574DD4
:1017D0004F44453D335D2000DC68000841542B43F5
:1017E000575141500D0A00005B54727920576946E9
:1017F000695D2025730D0A0041542B43574A41501F
:101800003D222573222C222573220D0A00000000A0
:101810005749464920474F54204950004641494CBA
:10182000000000004552524F520000005B576946CD
:1018300069207472792000005B4F4B5D2057694628
:101840006920636F6E6E65637465640D0A00000045
:101850005B4641494C5D2057694669207265747248
:10186000790D0A005B4641494C5D20576946692065
:10187000636F6E6E656374206661696C65640D0AE2
:101880000000000041542B4349504D55583D300D48
:101890000A00000041542B43495053544152543DD7
:1018A00022544350222C2262656D66612E636F6D57
:1018B000222C383334340D0A000000005B434950B9
:1018C0005354415254200000434F4E4E4543540060
:1018D000434F4E4E454354204641494C00000000C2
:1018E000444E53005B4F4B5D2054435020636F6E5A
:1018F0006E65637465640D0A00000000414C52453A
:10190000414459005B4F4B5D2054435020616C7241
:101910006561647920636F6E6E65637465640D0A3A
:10192000000000005B4641494C5D2054435020724A
:10193000657472790D0A00005B4641494C5D205484
:10194000435020636F6E6E656374206661696C65D9
:10195000640D0A006C6F636B30303100393762669A
:1019600037643162313934643966616362373933DF
:1019700064626464383537656365313600000000A1
:10198000636D643D31267569643D257326746F70FF
:1019900069633D25730D0A005B5375627363726959
:1019A00062655D20257300005B5365727665722069
:1019B00000000000636D643D31267265733D3100A7
:1019C0005B4F4B5D20537562736372696265207370
:1019D0007563636573730D0A000000005B57415225
:1019E0004E5D20537562736372696265206E6F7419
:1019F00020636F6E6669726D65642C206275742059
:101A000077696C6C20636F6E74696E75652E2E2E0F
:101A10000D0A00005B4641494C5D2053656E642011
:101A2000737562736372696265206661696C65646F
:101A30000D0A00003D3D3D3D2045535038323636BD
:101A400020496E69742053756363657373203D3D4F
:101A50003D3D0D0A0000000000B587B001210820BF
:101A600002F0DCF90121880402F0C8F94FF480602B
:101A7000ADF8180018208DF81B0003208DF81A000F
:101A800006A91D4800F0FAFC4FF40060ADF81800FC
:101A900004208DF81B0006A9174800F0EFFC4FF456
:101AA000E13002900020ADF80C00ADF80E00ADF86A
:101AB0001000ADF814000C20ADF8120002A90F4878
:101AC00003F05CF9012240F225510C4803F031F992
:101AD00027208DF8040001208DF805008DF8060000
:101AE0008DF8070001A801F04BFB0121034803F02A
:101AF000DDF807B000BD0000000C014000480040C8
:101B000010B54FF480710348FEF799FD002002499B
:101B1000088010BDA40100203E00002010B50BA1DC
:101B20000C48FEF723FD041E0DD00BA12046FEF746
:101B30001DFD08B1012010BD09A12046FEF716FDCC
:101B400008B10220F7E70020F5E70000266D736773
:101B50003D000000A4010020E5BC80E99481000064
:101B6000E585B3E99481000010B50A4803F072F9E5
:101B7000C4B209480088FE280BDA074801880088AB
:101B8000401C054A1080054844540020034912882F
:101B9000885410BD004800403E000020A4010020F1
:101BA00010B509A0FEF76EFB0520FFF79AF8FFF7C6
:101BB000A7FF10A000F078F84FF4487003F075FB11
:101BC000FFF774FC10BD00000D0A5B5265636F6E79
:101BD0006E6563745D20544350206C6F73742C20C9
:101BE0007265636F6E6E656374696E672E2E2E0D5F
:101BF0000A00000041542B434950434C4F53450DBC
:101C00000A00000010B5044600BF8021044803F01C
:101C100059F80028F9D02146014803F020F910BDF9
:101C20000048004000B589B00BA101A8FEF736FBC3
:101C300001A800F045F838B10CA0FEF723FBFFF730
:101C40005FFF012009B000BD0EA0FEF71BFBFFF7F0
:101C5000A7FF0020F6E70000636D643D30266D733A
:101C6000673D70696E670D0A000000005B486561A2
:101C70007274626561745D2070696E67204F4B0DF0
:101C80000A0000005B4865617274626561745D20E2
:101C90004641494C2C207265636F6E6E65637469B2
:101CA0006E672E2E2E0D0A0010B5044603E014F8C0
:101CB000010BFFF7A7FF20780028F8D110BD000026
:101CC00070B588B005462846FEF78EFC86B23246CF
:101CD0001DA16846FEF7E2FA002430E0FFF710FF8E
:101CE0006846FFF7E1FF4FF4FA7003F0DEFA1AA13D
:101CF0001A4800F043F8E0B1FFF702FF2846FFF76B
:101D0000D3FF4FF47A7003F0D0FA15A1134800F016
:101D100035F810B1012008B070BD13A10F4800F0D4
:101D20002DF820B913A10D4800F028F808B10020C3
:101D3000F1E74FF4967003F0B8FA601CC4B2032CBC
:101D4000CCDB0020E7E7000041542B4349505345CA
:101D50004E443D25750D0A003E000000A401002000
:101D600053454E44204F4B0053454E442046414975
:101D70004C0000004552524F5200000070B504461E
:101D80000D4629462046FEF7F1FB08B1012070BD43
:101D90000020FCE730B5C3B0044619A11A48FFF78C
:101DA000EDFF20B919A11848FFF7E8FF18B1FFF7B8
:101DB000F7FE43B030BD012C01D117A000E018A000
:101DC000054619A31AA223A111A80095FEF766FAE9
:101DD00011A8FFF775FF58B12A4626A101A8FEF702
:101DE0005DFA01A928A0FEF74DFAFFF789FE04E08D
:101DF00026A0FEF747FAFFF7D3FE00BFD9E70000A1
:101E0000434C4F5345440000A40100206C696E6BA5
:101E1000206973206E6F7400E5BC80E99481000036
:101E2000E585B3E9948100006C6F636B303031005D
:101E300039376266376431623139346439666163D7
:101E400062373933646264643835376563653136C7
:101E500000000000636D643D32267569643D2573A2
:101E600026746F7069633D2573266D73673D257316
:101E70000D0A00005B55706C6F61645D2025732056
:101E80004F4B0D0A00000000257300005B55706C7D
:101E90006F6164204641494C5D207265636F6E6ED0
:101EA000656374696E672E2E2E0D0A0010B5102022
:101EB00000F022F810B1102000F018F810BD10B595
:101EC000202000F019F810B1202000F00FF8402079
:101ED00000F012F810B1402000F008F8802000F067
:101EE0000BF810B1802000F001F810BD0149086026
:101EF0007047000014040140014600200022074BF7
:101F00001B6803EA0102054B14331B680B4013B135
:101F10000AB1012000E000207047000000040140E9
:101F2000002123498279002A3AD00A4612680368C0
:101F30009A430B461A600A1D126803689A430B1DE8
:101F40001A60027911440A6803681A430A60184A41
:101F50000832126803689A43154B08331A601A1D39
:101F6000126803689A43124B0C331A604279102AA4
:101F70000ED11A1F126803681A430D4B08331A60FA
:101F80001A1D126803681A43094B0C331A600DE0DE
:101F90000749427911440A6803681A430A6005E058
:101FA000027911440A6803689A430A607047000086
:101FB00000040140014621293ED2DFE801F011135F
:101FC0001517191B1D1F212325273D3D3D3D292B9D
:101FD0003D3D3D2D3D3D2F313335373D3D393B00B6
:101FE00017A02BE01BA029E01FA027E023A025E0DD
:101FF00027A023E02BA021E02FA01FE033A01DE0AD
:1020000037A01BE03BA019E03FA017E043A015E07C
:1020100047A013E04BA011E04FA00FE053A00DE04C
:1020200057A00BE05BA009E05FA007E063A005E01C
:1020300067A003E06BA001E06FA000BF00BF704786
:10204000202020202020204F4B2020202020202036
:102050000000000020646174612072656365697628
:102060006520657272000000206E6F2066696E67E1
:1020700065722020202020200000000020696D6172
:102080006765206661696C20202020200000000028
:1020900020746F6F2064727920202020202020205F
:1020A0000000000020746F6F2077657420202020CE
:1020B000202020200000000020746F6F206D6573C9
:1020C00073792020202020200000000020746F6FF2
:1020D0002066657720706F696E74732000000000C1
:1020E000206E6F74206D6174636820202020202092
:1020F00000000000206E6F7420666F756E642020F3
:102100002020202000000000206D65726765206699
:1021100061696C20202020200000000020616464A0
:1021200072206F75742072616E6765200000000078
:102130002064656C206661696C20202020202020AE
:102140000000000020656D707479206661696C2064
:102150002020202000000000206E6F2076616C6936
:102160006420696D672020200000000020666C61FB
:10217000736820722F7720657272202000000000A3
:1021800020756E646566696E6564206572722020D4
:102190000000000020696E76616C696420726567DA
:1021A00020202020000000002072656720646174F8
:1021B000612065727220202000000000206E6F7484
:1021C000657061642065727220202020000000008C
:1021D000206C69622066756C6C20202020202020F5
:1021E000000000002061646472206572722020206B
:1021F000202020200000000020756E6B6E6F776E2F
:1022000020657272202020200000000010B524A15B
:1022100028A002F0B4FCFEF777FD4FF4487003F0FD
:1022200091FE02E0322003F08DFE00F0FBFD00285D
:10223000F8D1C82003F086FE00F0EEFF02F01AFA93
:102240000F211F4800F0AEF90121080701F0D6FD6B
:1022500003F054FF1BA0FEF715F80121084601F01A
:102260009FFB0F21164800F09FF902F0E7F902F0FA
:1022700029F804F085FA00F0D4FFFEF7DDFC19A17F
:1022800019A002F07CFCFEF703FD4FF4487003F048
:1022900059FE02F0F3FB16A0FDF7F4FF10BD00009D
:1022A0005072657373206B657920746F2077616B52
:1022B00065000000536C656570206D6F64650000FB
:1022C000001C01405B536C6565705D20456E746554
:1022D00072696E672053544F50206D6F64652E2EC7
:1022E0002E0D0A0000000000576F6B65207570000E
:1022F0005B536C6565705D20576F6B652075702052
:1023000066726F6D2053544F50206D6F64650D0AD7
:102310000000000010B50446412C0AD119A11DA0EF
:1023200002F02DFCFEF7B4FCFEF746FB02F0A6FB24
:1023300027E0422C0ED11BA11BA002F020FCFEF7CF
:10234000A7FCFEF73FFD4FF47A7003F0FBFD02F0AF
:1023500095FB16E0432C09D10120FFF775F816A173
:1023600019A002F00CFCFEF793FC0AE0442C08D103
:102370000220FFF769F810A117A002F000FCFEF799
:1023800087FC10BD50726573732066696E67657255
:102390002E2E2E004164642046696E67657270724D
:1023A000696E74000000000044656C657465204629
:1023B000502049443D3100005377697065206361C6
:1023C00072642E2E2E00000041646420436172640A
:1023D000204D6F646500000044656C2043617264A9
:1023E000204D6F646500000030B504460D460021A5
:1023F0001AE0104810F82100A04213D10D4800EB5C
:1024000081004078A8420DD10A4800EB8100807815
:10241000904207D1074800EB8100C078984201D173
:10242000084630BD481CC1B2034800788142E0DB59
:10243000FF20F6E7CC0000201A00002030B5002273
:102440008B071C0F0F2303FA04F20B4B8C1053F86D
:1024500024309343084C8D1044F8253023468C10CB
:1024600053F824308C07240F00FA04F42343024C61
:102470008D1044F8253030BD080001402DE9F041B1
:10248000024600250026002000230024002791F8A2
:1024900003C00CF00F0591F803C00CF0100CBCF158
:1024A000000F03D091F802C04CEA050591F800C076
:1024B000BCF1000F31D0146800202BE04FF0010C6C
:1024C0000CFA00F3B1F800C00CEA03069E4220D1DA
:1024D00083004FF00F0C0CFA03F7BC4305FA03FC22
:1024E0004CEA040491F803C0BCF1280F06D14FF068
:1024F000010C0CFA00FCC2F814C00AE091F803C009
:10250000BCF1480F05D14FF0010C0CFA00FCC2F8E9
:1025100010C0401C0828D1D31460B1F800C0BCF131
:10252000FF0F34DD546800202EE000F1080C4FF05E
:10253000010808FA0CF3B1F800C00CEA03069E4249
:1025400021D183004FF00F0C0CFA03F7BC4305FABE
:1025500003FC4CEA040491F803C0BCF1280F05D138
:1025600000F1080C08FA0CF8C2F8148091F803C0C6
:10257000BCF1480F07D100F1080C4FF0010808FA30
:102580000CF8C2F81080401C0828CED35460BDE877
:10259000F0810246002093680B400BB1012000E05F
:1025A0000020704741617047016170470AB10161C5
:1025B00000E0416170470000002109E00648405CEE
:1025C00020B90120044A505408467047481CC1B243
:1025D0006429F3DBFF20F8E73404002070B50446DB
:1025E000302C07DB392C05DCFEF752FB204601F0CE
:1025F000DBFB70BD2A2C11D1FEF74AFB1F48007887
:10260000002802DD01F0E8FB07E0FF201C4908700C
:1026100000201C49087002F031FAEAE7232C2AD185
:10262000FEF736FB15480078062823D10622164906
:102630001648FDF7ADFF58B911480578FF2010493D
:10264000087000200F4908702846FFF763FE11E06C
:102650000FA110A002F093FAFEF723FB4FF47A705B
:1026600003F070FCFF20064908700020054908703F
:1026700002F004FABDE700BFBBE7000053000020F2
:102680004C0000204A0000201B0000204D000020CC
:102690000000000057524F4E4720505744000000A2
:1026A00070B50446082C6FD2DFE804F06E040E1BF0
:1026B000213A476036A137A002F061FAFEF724FB09
:1026C00004203749087060E031A136A002F057FAC3
:1026D000FEF7E7FA4FF4966003F034FC02F0CEF90F
:1026E00053E002F0CBF900202D4908704DE0FEF7D1
:1026F000B9FD054600F086FD2CA1082000F00AFF78
:102700001DB12946182002F019FA00F097FEFEF7D5
:10271000FBFA40F2DC5003F015FC02F0AFF934E0B4
:102720001BA125A002F02BFAFEF7BBFA40F2DC5009
:1027300003F008FC02F0A2F927E0FEF793FD05463E
:1027400000F060FD20A1082000F0E4FE1DB1294644
:10275000182002F0F3F900F071FEFEF7D5FA40F20E
:10276000DC5003F0EFFB02F089F90EE01AA11DA086
:1027700002F005FAFEF795FA40F2DC5003F0E2FBB6
:1027800002F07CF901E0FFE700BF00BF70BD000070
:1027900000000000554E4C4F434B454400000000E4
:1027A0004A00002044454E4945440000436172649C
:1027B0002041646465640000416464204361726484
:1027C000204641494C000000436172642044656C1E
:1027D00065746564000000004E6F7420666F756E4E
:1027E0006400000044656C657465204641494C00F6
:1027F00030B585B00446442C1AD149480078FF28EA
:1028000016D047480578FF204549087045480570AF
:1028100005204549087000204449087044A002F092
:1028200053F9002002F06EF9FEF732FA05B030BD20
:10283000412C05D0422C03D0432C01D0442C35D15F
:10284000374804708DF800402B208DF8010044209B
:102850008DF8020020208DF803003D208DF8040043
:1028600020208DF8050000208DF80600412C04D1B1
:1028700032A16846FDF7D7FE11E0422C04D131A108
:102880006846FDF7D0FE0AE0432C04D12FA168462C
:10289000FDF7C9FE03E02FA16846FDF7C4FE2FA196
:1028A000684602F06CF9FEF7F3F9BFE7FF201C4918
:1028B0000870302C10DB392C0EDC01201A4908700E
:1028C00000201A4908702AA002F0FEF8FEF7E0F98D
:1028D000204601F069FAA9E7232C0ED10120124904
:1028E000087000201149087021A002F0EDF80020C6
:1028F00002F008F9FEF7CCF998E72A2C0ED1022055
:10290000094908700020094908701CA002F0DCF891
:10291000002002F0F7F8FEF7BBF987E700BF85E774
:102920004B0000204C0000204A00002053000020F3
:1029300041444D494E2050574400000041646420FA
:102940004650000044656C204650000041646420FD
:102950004344000044656C2043440000507265739A
:1029600073204420746F20636F6E6669726D00007F
:10297000494E505554205057440000004F4C4420BD
:102980005057440010B504460F480078062818D266
:10299000DFE800F003070B0F17132046FFF728FFAF
:1029A00010E0204600F012F80CE0204600F0D2F8CB
:1029B00008E0204600F07AF804E02046FFF70EFE1B
:1029C00000E000BF00BF10BD4A00002010B5044663
:1029D000302C07DB392C05DCFEF75AF9204601F0D4
:1029E000E3F910BD2A2C0ED1FEF752F924480078E5
:1029F000002802DD01F0F0F904E000202149087010
:102A000002F03CF8EDE7232C38D1FEF741F91C48E1
:102A10000078062831D106221B491C48FDF7B8FD75
:102A200028B900201A490870FEF71CFD25E0184857
:102A30000078401C164908700846007805280DDB10
:102A400014A115A002F09BF8FEF72BF940F6C41074
:102A500003F078FA00200E49087009E00DA110A0DB
:102A600002F08DF8FEF71DF94FF47A7003F06AFA60
:102A700000200449087002F001F8B2E700BFB0E797
:102A8000530000204A0000201B0000204D000020C1
:102A900054000020000000004C4F434B4544000010
:102AA00057524F4E472050574400000070B504461F
:102AB000302C07DB392C05DCFEF7EAF8204601F064
:102AC00073F970BD2A2C0ED1FEF7E2F81948007890
:102AD000002802DD01F080F904E0002016490870AA
:102AE00001F0CCFFEDE7232C22D1FEF7D1F81148FD
:102AF000007806281BD1002505E01048405D1049EC
:102B00004855681CC5B2062DF7DB00F0CBFF0DA1C0
:102B10000DA002F034F8FEF7F7F84FF4966003F0DA
:102B200011FA00200449087001F0A8FF00BFC8E7AF
:102B300000BFC6E7530000204A0000204D000020DF
:102B40001B00002000000000505744204368616EC5
:102B50006765640010B50446302C07DB392C05DCB2
:102B6000FEF796F8204601F01FF910BD2A2C0ED171
:102B7000FEF78EF81C480078002802DD01F02CF9E1
:102B800004E000201949087001F078FFEDE7232CDC
:102B900028D1FEF77DF814480078062821D10622B6
:102BA00013491448FDF7F4FC60B903200F4908707D
:102BB00000200D49087010A001F086FF002001F0F0
:102BC000A1FF0EE00EA10FA001F0D9FFFEF769F8FA
:102BD0004FF47A7003F0B6F900200449087001F050
:102BE0004DFFC2E700BFC0E7530000204A000020AD
:102BF0001B0000204D0000204E4557205057440038
:102C00000000000057524F4E47205057440000002C
:102C100070B52848008800284BDDFEF77FFF054689
:102C2000FEF76EFF012D20D101F084FB22A124A02C
:102C3000FDF728FBFEF72CF801F05AFC24A125A093
:102C400001F09DFF4FF4966003F07CF901F016FF50
:102C500001F0C4FB044622480078844204D0204698
:102C6000FFF798F81E48047022E0022D20D101F0F1
:102C700061FB1CA112A0FDF705FBFEF709F801F0AE
:102C800007FC13A119A001F07AFF4FF4966003F03E
:102C900059F901F0F3FE01F0A1FB04461048007859
:102CA000844204D02046FFF775F80D48047000BF39
:102CB00000BF70BD3E000020E5BC80E994810000AB
:102CC0005B446F776E6C696E6B5D2025730D0A0037
:102CD000000000005769466920556E6C6F636B00F9
:102CE00040000020E585B3E99481000057694669FA
:102CF000204C6F636B00000000BFFEE710B502467A
:102D00000B46002107E0505C5C5CA04201D0012032
:102D100010BD481CC1B20429F5DB0020F8E7000013
:102D20007CB50546EF208DF8000001208DF80100EC
:102D30001A480068000E8DF8020018480068000C60
:102D40008DF8030015480088000A8DF80400134828
:102D500000788DF8050007208DF8060000208DF81A
:102D600007000F49088012E0012002F09EFA0C488B
:102D7000008800F4004050B10020094908806946ED
:102D80000848FDF7F3FB04460CB120467CBD681EE5
:102D900080B2051EE8D100BFF8E700004400002023
:102DA00042000020A402002000E000BF011EA0F1AC
:102DB0000100FAD17047000038B50121802001F0F0
:102DC0002DF810208DF8030003208DF80200002458
:102DD0000AE0114830F81400ADF8000069460F48C9
:102DE000FFF74CFB601CC4B2042CF2DB00F04AF885
:102DF00048208DF8030000240AE0094830F8140048
:102E0000ADF8000069460548FFF738FB601CC4B206
:102E1000042CF2DB38BD0000FC680008001C0140F7
:102E20000469000810B514480088134A52881043FA
:102E3000114A92881043104AD28840EA02010F4892
:102E4000FFF7B0FB4FF4FA70FFF7AEFF00240CE081
:102E50000B4830F814100948FFF79BFB18B900F035
:102E600011F8012010BD601CC4B2042CF0DB00F08E
:102E700009F80020F6E70000FC680008001C01408B
:102E80000469000810B508480088074A52881043B2
:102E9000054A92881043044AD28840EA0201034856
:102EA000FFF782FB10BD0000FC680008001C014019
:102EB0002DE9F041FF244FF0FF37B846002521E00F
:102EC000FFF7E0FF2B4830F815102B48FFF76AFB9F
:102ED0004FF4FA70FFF768FF00260BE0274830F840
:102EE00016102548FFF755FB10B92F46B04603E0F2
:102EF000701C46B2042EF1DB00BF781C00B103E069
:102F0000681C45B2042DDBDB00BFFFF7BBFF781C5C
:102F1000E8B141F28830FFF747FFFFF7B3FF1548EC
:102F200030F817101448FFF73DFB4FF4FA70FFF725
:102F30003BFF124830F818100F48FFF72AFB20B962
:102F40000F4800EB870010F80840FFF79BFFFF2CAD
:102F500008D00C480078FF2804D10A4804702046A5
:102F6000BDE8F081FF2C02D1FF2006490870FF2048
:102F7000F6E70000FC680008001C01400469000836
:102F8000EC6800084800002010B540210148FFF718
:102F90000BFB10BD0020014010B540210148FFF798
:102FA00001FB10BD0020014010B50446412C01D0AA
:102FB000FF2010BD08210846FDF7E8FE3D21112045
:102FC00002F036F98621172002F032F97F212620FF
:102FD00002F02EF91E212D2002F02AF900212C20CA
:102FE00002F026F98D212A2002F022F93E212B2021
:102FF00002F01EF90A2002F058F900F079FD0020D5
:10300000D7E710B504462046FDF73CFC10BD000094
:1030100000F0E6FC01F032FD7CE00025FF240026F4
:10302000FEF718F90546FFF743FF04463A480078D3
:1030300048B1FDF7FBFD30B980213848FFF7A9FA08
:10304000012800D1012615B9FF2C00D10EB101F0E5
:1030500071F915B12846FFF723FBFF2C06D0214656
:103060002FA0FDF70FF92046FFF78CFC002E2BD088
:103070002EA12FA001F083FD31A0FDF703F902F08E
:10308000ADFA012802D1FEF7EDF90BE027A131A03E
:1030900001F075FDFDF705FE4FF4966002F052FF5A
:1030A00001F0ECFC002708E0322002F04BFF781C16
:1030B00087B200F010FB00B101E03C2FF4DB00BF51
:1030C000C82002F03FFF00BF5DB9FF2C09D146B90F
:1030D000FDF7ACFD08B9012000E00020074601F033
:1030E0000BF9FFF79FFE70B11C480088401C1B497C
:1030F000088008460088B0F5967F07DB002008802E
:10310000FFF784F806E00020144908800A2002F046
:1031100019FF00BF81E7000000000020000C014003
:103120004B65793A2025630D0A000000000000007D
:10313000566572696679696E672E2E2E0000000052
:1031400046696E6765722064657465637465640DB5
:103150000A00000044454E49454400001800002084
:1031600000BFFEE77047000000F01F020121914000
:10317000024A430942F823107047000080E100E052
:1031800070B5002100230F22C47804B3154C2468C5
:1031900004F4E064C4F5E064210AC1F10403CA4008
:1031A000447804FA03F184781440214309010E4C59
:1031B0000678A155047804F01F050124AC40057879
:1031C0006D11AD0005F1E025C5F8004109E0047876
:1031D00004F01F050124AC40044D0678761145F833
:1031E000264070BD0CED00E000E400E080E100E06E
:1031F00002490143024A1160704700000000FA05CD
:103200000CED00E010B54FF480610248FDF717FAAD
:1032100010BD00009804002010B5AE2000F0EAF9BF
:1032200010BD10B5AF2000F0E5F910BD70B5034634
:1032300015467F2B01DC3F2900DD70BD0C46CE1703
:1032400001EB5676F61003EBC616B0B2CE1701EBC3
:103250005676F610A1EBC606F2B245B1084C265CD4
:10326000012494402643F4B2054E345406E0044C45
:10327000245C01269640B443014E345400BFDCE781
:103280009804002000B587B001214FF4847000F04D
:10329000C5FD0121880300F0B1FD2020ADF8180024
:1032A00010208DF81B0003208DF81A0006A95E4837
:1032B000FFF7E4F84FF40160ADF8180010208DF826
:1032C0001B0003208DF81A0006A95848FFF7D6F80E
:1032D0004FF42040ADF8180018208DF81B00032093
:1032E0008DF81A0006A95048FFF7C8F810214F487A
:1032F000FFF75AF900214E4800F0ACFF0020ADF86E
:1033000004004FF48270ADF806000020ADF808000C
:103310000220ADF80A000120ADF80C004002ADF823
:103320000E000820ADF810000020ADF812000720B4
:10333000ADF8140001A93E4800F0A6FF01213C4869
:1033400000F088FF01203B490870C1023748FFF7B1
:1033500029F90020009002E00098401C00903649B6
:1033600000988842F8D34FF400613048FFF71CF909
:103370000020009002E00098401C00902E49009828
:103380008842F8D3AE2000F035F9D52000F032F9AC
:10339000802000F02FF9A82000F02CF93F2000F049
:1033A00029F9D32000F026F9002000F023F940206D
:1033B00000F020F98D2000F01DF9142000F01AF91A
:1033C000202000F017F9022000F014F9A12000F0ED
:1033D00011F9C82000F00EF9DA2000F00BF91220E4
:1033E00000F008F9812000F005F9CF2000F002F983
:1033F000D92000F0FFF8F12000F0FCF8DB2000F00D
:10340000F9F8302000F0F6F8A42000F0F3F8A62038
:1034100000F0F0F8AF2000F0EDF8FFF7F3FE00F059
:103420000DF807B000BD0000000C01400020014075
:103430000038004049000020A086010070B500F06F
:1034400031F8002424E004F1B001C8B200F0D2F851
:10345000002000F0CFF8102000F0CCF820210E481A
:10346000FFF7A2F810210D48FFF79CF8002507E0B0
:1034700005EBC4110A4A505C00F0B4FE681C85B22A
:10348000802DF5DB10210548FFF78EF8601CC4B2D3
:10349000082CD8DB70BD0000000C0140002001406A
:1034A0009804002000B585B01848007808B105B030
:1034B00000BD0021164800F0CDFE0020ADF8000050
:1034C0004FF48270ADF802000020ADF80400022035
:1034D000ADF806000120ADF808004002ADF80A0082
:1034E0000820ADF80C000020ADF80E000720ADF864
:1034F00010006946064800F0C7FE0121044800F0AC
:10350000A9FE01200149087000BFD0E74900002052
:10351000003800402DE9F04106460C4600252746BC
:1035200001E0681CC5B217F8011B0029F9D1802100
:10353000A1EBC50000EBD071C1F34F082246314624
:10354000404600F045F8BDE8F08100002DE9F04765
:1035500006460F469146A9F120001C4901EB001ACE
:10356000002413E01AF8048000250BE048FA05F364
:1035700003F001027B1999B2331998B2FFF756FE96
:10358000681CC5B2082DF1DB601CC4B2082CE9DB55
:10359000002417E004F108001AF8008000250DE06F
:1035A00048FA05F303F0010207F108032B4499B22E
:1035B000331998B2FFF73AFE681CC5B2082DEFDB4D
:1035C000601CC4B2082CE5DBBDE8F0870C6900087C
:1035D00070B505460E46144608E014F8012B314636
:1035E0002846FFF7B3FF05F1080085B220780028D0
:1035F000F3D170BD10B50446FFF754FF20210748F2
:10360000FEF7D0FF10210648FEF7CCFF204600F061
:10361000E9FD10210248FEF7C7FF10BD000C014074
:10362000002001402DE9F04104460D4600F0BDFEAA
:1036300000F092FE012000F0B2FE072000F0BDFE77
:103640000C2000F0C4FE2012FFF7DBFCE0B2FFF715
:10365000D8FC2812FFF7D5FCE8B2FFF7D2FC142003
:1036600000EB2420E1B2084400EB2520E9B200EB96
:103670000108404600F08AFE4FF4FA60FFF750FB65
:1036800007460FB17E7A00E0FF263046BDE8F081A4
:103690002DE9F041054600F088FE00F05DFE0120B6
:1036A00000F07DFE042000F088FE022000F08FFE76
:1036B0002846FFF7A6FCEF1D384600F067FE4FF4E2
:1036C000FA60FFF72DFB06460EB1747A00E0FF2486
:1036D0002046BDE8F08170B500F067FE00F03CFECA
:1036E000012000F05CFE032000F067FE012000F0E6
:1036F0006EFE0526304600F049FE4FF4FA60FFF7F3
:103700000FFB05460DB16C7A00E0FF24204670BD2A
:1037100070B5054600202D49088000F046FE00F0F7
:103720001BFE0120FFF76DFC0020FFF76AFC002064
:10373000FFF767FCC82001F0B8FD2448008800F4BA
:10374000004000283DD022480078EF281AD12048B8
:103750004078012816D11E488079072812D11C48CC
:10376000807800061A49C97800EB014018490979A8
:1037700000EB0120164949790844286000201349CC
:10378000088070BD11480088C0F30D0111A0FCF73E
:1037900079FD002406E00E48015D15A0FCF772FDDE
:1037A000601CC4B20C2C05DA08480088C0F30D0078
:1037B000A042F0DC10A0FCF765FD00200349088062
:1037C00002E00EA0FCF75EFD0120DAE742000020D7
:1037D000A4020020415336303820626164207265B3
:1037E000706C792C206C656E3D25643A20000000D9
:1037F00025303258200000000D0A000041533630B9
:1038000038206E6F207265706C79202852582065C0
:103810006D707479290D0A002DE9F04781460D4637
:1038200016461F4600F0C1FD00F096FD012000F095
:10383000B6FD082000F0C1FD1B2000F0C8FD484681
:10384000FFF7DFFB2812FFF7DCFBE8B2FFF7D9FB3D
:103850003012FFF7D6FBF0B2FFF7D3FB09F12400DB
:1038600000EB2520E9B2084400EB2620F1B200EB82
:10387000010A504600F08AFD4FF4FA60FFF750FA53
:10388000044664B194F80980E07AA17A00EB012043
:103890003880607B217B00EB0120788001E04FF0D5
:1038A000FF084046BDE8F08770B500F07EFD00F0EF
:1038B00053FD012000F073FD032000F07EFD032086
:1038C00000F085FD0726304600F060FD4FF4FA60F9
:1038D000FFF726FA05460DB16C7A00E0FF2420467A
:1038E00070BD70B500F061FD00F036FD012000F004
:1038F00056FD032000F061FD052000F068FD09265B
:10390000304600F043FD4FF4FA60FFF709FA054630
:103910000DB16C7A00E0FF24204670BD08B501218E
:10392000082000F07BFA8020ADF8000028208DF8F8
:10393000030069460148FEF7A1FD08BD000C0140E7
:103940002DE9F04106460C4600F02FFD00F004FD85
:10395000012000F024FD062000F02FFD062000F0DD
:1039600036FD3046FFF74DFB2012FFF74AFBE0B271
:10397000FFF747FB06F10D0000EB2420E1B200EB5E
:103980000108404600F002FD4FF4FA60FFF7C8F965
:1039900007460FB17D7A00E0FF252846BDE8F0819B
:1039A00010B5024600200C4B186820F003001043AD
:1039B00018600A4B1B6843F00403084C236001297C
:1039C00001D130BF00E020BF044B1B6823F004038B
:1039D000024C236010BD00000070004010ED00E0BC
:1039E0007CB5002506224FF480511A4801F09EFA5A
:1039F00000240BE01748005D302803DB1548005D0C
:103A0000392801DD012503E0601CC4B2062CF1DB7E
:103A100000BFDDB110A103C9CDE90001002405E01C
:103A20001DF804000B490855601CC4B2062CF7DBD6
:103A30004FF4805001F01AFA06224FF480510548E5
:103A400001F0E8FA06A0FCF71DFC00BF0DA0FCF792
:103A500019FC7CBD1B0000203132333435360000A8
:103A600050617373776F72643A2072657365742066
:103A7000746F2064656661756C742031323334353F
:103A8000360D0A0050617373776F72643A206C6F61
:103A9000616465642066726F6D20666C6173680D89
:103AA0000A00000010B54FF4805001F0DFF9062243
:103AB0004FF48051034801F0ADFA03A0FCF7E2FB9C
:103AC00010BD00001B00002050617373776F72649B
:103AD0003A20736176656420746F20666C61736848
:103AE0000D0A000010B503211420FDF74FF910BD99
:103AF00010B5142000F0A2FA044604F0030018B92F
:103B00000321142000F008FD10BDF0B587B0054674
:103B1000002708210846FDF739F900210D2001F0A2
:103B200087FB80210E20FDF731F993208DF80400EA
:103B300020208DF8050006A801AB022201A9009003
:103B40000C2000F01AF8064686B9002407E001A808
:103B5000005D285501A8005D4740601CC4B2042CDC
:103B6000F5DB01A8005DB84200D0FE2680210E20C2
:103B700000F0D2FC304607B0F0BD2DE9FE4F0646FE
:103B8000884691469A46DDF830B0FE20029000202B
:103B9000019000900C2E06D00E2E09D1122001901B
:103BA0001020009005E0772001903020009000E088
:103BB00000BF00BF019840F08001022001F038FBF7
:103BC00080210420FDF7E2F80021012001F030FB04
:103BD00080210A2000F0A0FC002505E018F805105F
:103BE000092001F025FB6D1C4D45F7D3314601201E
:103BF00001F01EFB0C2E03D180210D2000F08CFC67
:103C00004FF4FA6500BF042000F018FA04466D1E58
:103C100035B104F0010018B9009820400028F2D016
:103C200080210D20FDF7B2F895B3062000F006FACA
:103C300000F01B0068BB002002900198204000F0BB
:103C4000010008B1FF2002900C2E24D10A2000F0C0
:103C5000F5F904460C2000F0F1F900F007072FB148
:103C6000601E07EBC000CBF8000002E0E000CBF8DC
:103C7000000004B90124122C00DD1224002505E007
:103C8000092000F0DBF90AF805006D1CA542F7D306
:103C900001E0FE20029080210C2000F03DFC00217C
:103CA000012001F0C5FA0298BDE8FE8F00B587B08B
:103CB00050208DF8040000208DF805000DF106025B
:103CC000022101A8FDF72CF806A801AB042201A9E6
:103CD00000900C20FFF751FF002007B000BD10B589
:103CE00000F0CEF910BD70B588B005460C4608212D
:103CF0000846FDF74BF807210D2001F099FA032142
:103D0000142000F009FC8DF8085007A802AB01222E
:103D100002A900900C20FFF730FF06464EB9079825
:103D2000102806D19DF8080020709DF809006070E9
:103D300000E0FE26304608B070BD000010B510212E
:103D40001848FEF731FC0A2001F0AFFA102115489F
:103D5000FEF728FC0A2001F0A8FA10211148FEF70E
:103D600023FC642001F0A1FA0F21012001F060FA88
:103D70003D21112001F05CFA1E212D2001F058FA9E
:103D800000212C2001F054FA8D212A2001F050FA54
:103D90003E212B2001F04CFA4021152001F048FA79
:103DA000002010BD0010014010B5044608480078FE
:103DB00006280CDA07480649097844540448007874
:103DC000401C034908700846007800F09BFE10BDB7
:103DD000530000204D00002010B50748007800284F
:103DE00008DD05480078401E034908700846007841
:103DF00000F088FE10BD00005300002029B1064AE3
:103E0000D2690243044BDA6104E0034AD269824377
:103E1000014BDA61704700000010024029B1064AE8
:103E200092690243044B9A6104E0034A9269824317
:103E3000014B9A61704700000010024030B500212C
:103E40000022002400232D4D6D6805F00C0121B1E6
:103E5000042905D0082923D105E0294D056022E079
:103E6000274D05601FE0254D6D6805F47012234D48
:103E70006D6805F48034022505EB92421CB9214D92
:103E8000554305600BE01D4D6D6805F400351DB10F
:103E90001C4D5543056002E0194D5543056002E095
:103EA000174D056000BF00BF144D6D6805F0F001AF
:103EB0000909154D6B5C0568DD4045600F4D6D6867
:103EC00005F4E061090A104D6B5C4568DD408560D2
:103ED0000A4D6D6805F46051C90A0B4D6B5C45686D
:103EE000DD40C560054D6D6805F44041890B074D07
:103EF0006B5CC568B5FBF3F5056130BD0010024091
:103F000000127A0000093D005500002065000020E5
:103F100010B501460022002300204A11012A02D1D7
:103F2000094C236806E0022A02D1074C236A01E00B
:103F3000054C636A01F01F02012494401C400CB13F
:103F4000012000E0002010BD00100240024840683F
:103F500000F00C0070470000001002401149096891
:103F600021F480310F4A11601146096821F4802143
:103F70001160B0F5803F03D0B0F5802F0ED106E080
:103F80000849096841F48031064A116007E0054993
:103F9000096841F4A021034A116000E000BF00BF9E
:103FA0007047000000100240014908667047000099
:103FB0000000424201460020034A506820F00300FE
:103FC00008435060704700000010024038B50020E0
:103FD00000900024002500BF3120FFF799FF05461F
:103FE0000098401C00900098B0F5A06F01D0002D03
:103FF000F2D03120FFF78CFF08B1012400E000244B
:10400000204638BD10B5FFF76AFEFFF797FEFFF7B1
:1040100069FDFFF76DFD4120FEF7C6FF10BD0000F2
:1040200009E04FF0FF310448006802F071F90128FF
:1040300001D1FCF7FBFEF4E71400002070B5044644
:1040400010210A48FEF7AEFA7E2000EA440040F054
:104050008005284600F07EF8002000F07BF8064638
:1040600010210248FEF7A0FA304670BD000801405A
:10407000642802DA0021014A1154704734040020F8
:1040800000B587B0012141F21500FFF7C7FEA0205F
:10409000ADF8180018208DF81B0003208DF81A00C9
:1040A00006A92948FEF7EAF94020ADF818000420D7
:1040B0008DF81B0006A92448FEF7E0F91020ADF8A2
:1040C00018008DF81B0003208DF81A0006A91E4861
:1040D000FEF7D4F91020ADF818008DF81B0003206E
:1040E0008DF81A0006A91948FEF7C8F90020ADF8A6
:1040F00004004FF48270ADF806000020ADF808000F
:10410000ADF80A00ADF80C004FF40070ADF80E00E9
:104110001820ADF810000020ADF812000720ADF80F
:10412000140001A90A4800F0AFF80121084800F086
:1041300091F810210448FEF737FA10210348FEF7E2
:1041400033FA07B000BD0000000801400010014034
:104150000030014010B5044600BF02210A4800F0BB
:1041600085F80028F9D02146074800F08BF800BFF9
:104170000121054800F07AF80028F9D0024800F043
:104180007EF8C0B210BD00000030014000B585B01F
:104190000021134800F05EF80020ADF800004FF455
:1041A0008270ADF802000020ADF80400ADF8060002
:1041B000ADF808004FF40070ADF80A000020ADF82B
:1041C0000C00ADF80E000720ADF810006946044859
:1041D00000F05AF80121024800F03CF805B000BD9B
:1041E0000038004010B5044600BF02210A4800F024
:1041F0003DF80028F9D02146074800F043F800BFF9
:104200000121054800F032F80028F9D0024800F0FA
:1042100036F8C0B210BD00000038004010B50446AA
:1042200000BF02210A4800F021F80028F9D02146F9
:10423000074800F027F800BF0121054800F016F8F4
:104240000028F9D0024800F01AF8C0B210BD0000F2
:104250000038004021B1028842F04002028004E0B0
:1042600002884FF6BF731A40028070470246002052
:1042700013890B400BB1012000E00020704701467C
:10428000888970478181704710B50022028802F446
:1042900041520B884C8823438C882343CC8823438A
:1042A0000C8923434C8923438C892343CC892343A2
:1042B0001A430280838B4FF2FF74234083830B8A5F
:1042C000038210BD10B54FF48030FFF747FEFFF7B3
:1042D0007DFE01280FD1FFF767FE00BF3920FFF7F1
:1042E00017FE0028FAD00220FFF764FE00BFFFF798
:1042F0002DFE0828FBD110BD10B50446ACB10B480B
:10430000007890B90A480068401C094908600846CE
:10431000006840F6B831884207D3FEF77DFF0120E0
:104320000249087000200249086010BD34000020D6
:104330003800002010B50648007820B1FEF771FF64
:1043400000200349087000200249086010BD0000E9
:10435000340000203800002010B50B490968080E11
:10436000FEF74FFE08480068C0F30740FEF749FE1D
:1043700005480088C0F30720FEF743FE024908788D
:10438000FEF73FFE10BD00004400002010B50446BB
:104390002012FEF736FEE0B2FEF733FE10BD10B578
:1043A00004462046FEF72DFE10BD10B5EF20FEF7A7
:1043B00028FE0120FEF725FE10BD10B50446C4F30B
:1043C0000720FEF71EFEE0B2FEF71BFE10BD10B583
:1043D00004462046FEF715FE10BD00000148007897
:1043E000704700003C00002000B589B00121042086
:1043F000FFF714FD01210820FFF700FD0220ADF8B2
:10440000200018208DF8230003208DF8220008A931
:104410001C48FEF733F844F61F60ADF8180047203B
:10442000ADF814000020ADF81A00ADF8160005A98B
:10443000154800F085FA6020ADF804000120ADF8C1
:1044400006004FF4FA70ADF80A000020ADF80C0039
:1044500001A90D4800F010FA08210B4800F05EFA9F
:104460000121094800F0D2F90121074800F0DDF9E7
:104470000020064908704FF4FA7000F016FF09B0EA
:1044800000BD000000080140000C00403C0000207E
:1044900010B50848007800B910BD002000F00CF8F5
:1044A0004FF4487000F001FF00200249087000BF7F
:1044B000F2E700003C00002070B50446B42C00DD9B
:1044C000B4244FF4FA606043B42190FBF1F000F59E
:1044D000FA7085B22946024800F02DFA70BD00003E
:1044E000000C004001490870704700003C000020AB
:1044F00010B508480078012800D110BD5A20FFF7F8
:10450000DBFF4FF4487000F0D0FE01200149087035
:1045100000BFF2E73C00002070B505460C46284677
:10452000FFF78CFD064646EA0401284600F080FEAF
:1045300070BD10B500F002F810BD00000CB50020F1
:10454000019000903348006840F4803031490860A1
:1045500000BF3048006800F4003000900198401C13
:104560000190009818B90198B0F5A06FF1D12948D1
:10457000006800F4003010B10120009001E000203C
:1045800000900098012843D12348006840F01000B3
:10459000214908600846006820F0030008600846CA
:1045A000006840F0020008601A48406819494860F5
:1045B0000846406848600846406840F480604860AB
:1045C0000846406820F47C1048600846406840F483
:1045D000E81048600846006840F08070086000BF3E
:1045E0000C48006800F000700028F9D009484068C5
:1045F00020F00300074948600846406840F0020088
:10460000486000BF0348406800F00C000828F9D15A
:104610000CBD0000001002400020024070B50446AE
:104620002046FDF7C7FC0546294602A0FBF72AFEF7
:1046300070BD000025730D0A000000001CB50024A9
:104640000FE01020A040009000208DF80600684682
:10465000FDF766FC102101FA04F0FDF747FC601C31
:10466000C4B2042CEDDB0A20FEF77EFD1720FEF716
:104670007BFD1CBD3EB501210846FFF7CFFB0024A2
:1046800015E0201DC1B20520FDF7D8FE1020A04086
:10469000019000208DF808000C208DF80900012001
:1046A0008DF80A0001A8FDF73BFC601CC4B2042C85
:1046B000E7DB0A208DF8000000208DF801008DF85E
:1046C000020001208DF803006846FEF759FD17200F
:1046D0008DF8000000208DF8010001208DF8020007
:1046E0008DF803006846FEF74BFD3EBD10B500BFD8
:1046F000BF2080F31188BFF34F8FBFF36F8F00BFD0
:1047000001F0F2FE18B14FF080500449086000BF7C
:10471000002080F3118800BF10BD000004ED00E010
:1047200010B51348006840F00100114908600846C0
:104730004068104908400E494860084600680E4924
:1047400008400B4908600846006820F48020086093
:104750000846406820F4FE0048604FF41F0088605F
:10476000FFF7E7FE4FF000600449086010BD00004D
:10477000001002400000FFF8FFFFF6FE08ED00E029
:1047800010B50121880700F05CF8A0B1012188076D
:1047900000F048F80848008847F6FF71884205DABB
:1047A0000548008840F400400349088000214FF08C
:1047B000804000F03AF810BD4200002008B500200B
:1047C000009001210E4800F03CF8B8B101210C48DE
:1047D00000F028F80B48006820B1694609480068D5
:1047E00001F054FD00BF009838B14FF080500649E9
:1047F0000860BFF34F8FBFF36F8F00BF08BD00008D
:10480000000800401400002004ED00E021B10288FF
:1048100042F08002028004E002884FF67F731A4063
:1048200002807047CA430282704721B1028842F079
:104830000102028004E002884FF6FE731A400280F3
:10484000704730B50246002000230024158A05EA8F
:104850000103958905EA010413B10CB1012000E0C0
:10486000002030BD1AB183890B43838102E0838924
:104870008B4383817047000070B500240022002321
:10488000058C4FF6EF7635400584028C8388048BC7
:1048900048F6FF752C404FF6FF452C400D884FF62B
:1048A000FF7606EA05252C434FF6DF752A400D8971
:1048B00006EA05152A434D8806EA05152A43154DD3
:1048C000A84202D0144DA8421DD14FF67F752A4050
:1048D0004D894FF6FF7606EA05152A434FF6BF7558
:1048E0002A408D8806EA05152A434FF6FF352B40EE
:1048F0004FF2FF752B408D8906EA85052B43CD8944
:1049000006EA85052B4383800483CD8805870284CE
:1049100070BD0000002C0140003401400A46002117
:10492000018B4FF2FF7319404FF6FF7303EA022326
:1049300019430183704701877047818470470000E5
:10494000002202881D4B98420ED01D4B98420BD07E
:10495000B0F1804F08D01B4B984205D01A4B9842BB
:1049600002D01A4B984204D14FF68F731A404B88ED
:104970001A43174B984207D0164B984204D04FF673
:10498000FF431A40CB881A4302808B8883850B88AB
:1049900003850A4B98420BD0094B984208D00E4B26
:1049A000984205D00D4B984202D00D4B984201D150
:1049B0000B7A03860123838270470000002C01409C
:1049C000003401400004004000080040000C00409A
:1049D000001000400014004000400140004401402D
:1049E000004801401FB5044601210420FFF706FAE4
:1049F00004EB84000121C1EB400080B2ADF8080057
:104A000041F61F40ADF804000020ADF80A00ADF8F3
:104A1000060001A90D48FFF793FF012211460B483C
:104A2000FFF720FF1E208DF8000003208DF8010005
:104A300000208DF8020001208DF803006846FEF783
:104A40009FFB01210148FFF7F0FE1FBD0008004059
:104A500010B50A1101F00F030A2A02DA02F130043C
:104A600001E002F1370404700A2B02DA03F130048A
:104A700001E003F13704447010BD000010B5FEF7EB
:104A8000C1FB08A10020FEF745FD09A21021084640
:104A9000FEF79EFD09A220211020FEF799FDFEF7EA
:104AA000CDFC10BD444F4F52204C4F434B000000F3
:104AB000233D505744202A3D5345540041442F4242
:104AC000442F43442F44440010B50446FEF79AFB9C
:104AD00021460020FEF71EFD05A11820FEF71AFD55
:104AE00005A230210020FEF773FDFEF7A7FC10BDE4
:104AF0005F5F5F5F5F5F00002A436C656172202328
:104B00004F4B000070B50546002412E0AC4207DAB6
:104B1000282101EBC4002A221821FEF717FD06E028
:104B2000282101EBC4005F221821FEF70FFD601C55
:104B3000C4B2062CEADBFEF781FC70BDFEB5074669
:104B40000E460025002410E0315D0DEB0500FFF757
:104B50007FFFA81CC5B2032C05DA20222846691C59
:104B6000CDB20DF80020601CC4B2042CECDB002098
:104B70000DF8050069463846FEF7CCFCFEBD70B561
:104B800004460D46FEF73EFB21461020FEF7C2FC10
:104B90001DB129462020FEF7BDFCFEF74FFC70BD7D
:104BA00010B540F225511D4800F099F810B31B488C
:104BB00000F050F9C4B21A48008800F40040C8B9A7
:104BC0001748008800F4804060B10A2C03D0002010
:104BD0001349088020E01248008840F40040104942
:104BE000088019E00D2C06D10D48008840F4804063
:104BF0000B49088010E00A480088C0F30D000949FD
:104C00000C5407480088401C054908800846008865
:104C1000C72801DD0020088010BD000000380140D9
:104C200030000020DC00002010B540F2255116486D
:104C300000F055F800B3144800F00CF9C4B2134862
:104C4000008800F40040B8B910480088B0F5C87F6B
:104C500013DA00214FF08040FFF76FFE0B48008809
:104C600018B901218807FFF7E0FD08490888411CB1
:104C7000064A118006490C5405E00448008840F4B7
:104C800000400249088010BD00440040420000205E
:104C9000A402002010B540F22551034800F01FF88F
:104CA00008B1FCF761FF10BD0048004021B18289C6
:104CB00042F40052828104E082894DF6FF731A406B
:104CC0008281704702460020B1F5007F00D100BF0D
:104CD00013880B400BB1012000E00020704770B535
:104CE0000246002400230025002040F66A16B14247
:104CF00000D100BFC1F3421501F01F03012606FADF
:104D000003F3012D02D19689334006E0022D02D132
:104D1000168A334001E0968A33400C12012606FAC7
:104D200004F41688344013B10CB1012000E00020D7
:104D300070BDF0B50346002400260025002040F693
:104D40006A17B94200D100BF1846C1F3421401F0FE
:104D50001F06012707FA06F5012C01D10C3004E0EB
:104D6000022C01D1103000E014301AB107682F4333
:104D7000076002E00768AF430760F0BD2DE9F04728
:104D800086B005460E460024A24600BFA146002775
:104D9000B08900B100BF2F462C8A4CF6FF7004404A
:104DA000F08804432C82AC894EF6F3100440B0889E
:104DB00031890843718908430443AC81AC8A4FF6BA
:104DC000FF400440B0890443AC8201A8FFF736F8E5
:104DD0001F48874202D1DDF810A001E0DDF80CA0E9
:104DE000A88900F4004040B10AEBCA0000EB0A10A9
:104DF00031684900B0FBF1F807E00AEBCA0000EBAC
:104E00000A1031688900B0FBF1F86420B8FBF0F0BB
:104E100004012009642101FB1089A88900F40040E5
:104E200040B1322000EBC900B0FBF1F000F0070008
:104E3000044308E0322000EB09106421B0FBF1F0DC
:104E400000F00F0004432C8106B0BDE8F08700009D
:104E50000038014001468888C0F308007047C1F35C
:104E600008028280704700BFFEE7000010B50446CC
:104E7000FFF78CF900F0F6F800F0ACF84FF4805131
:104E80000D48FDF78FFB2020FFF7C8F9C4F307405A
:104E9000FFF7C4F9C4F30720FFF7C0F9E0B2FFF74A
:104EA000BDF94FF480510448FDF77EFB00F092F805
:104EB000FEF7F8FA10BD0000000C014008B5012112
:104EC0000820FEF7ABFF01218803FEF797FF4FF4A0
:104ED0008050ADF8000010208DF8030003208DF8FD
:104EE000020069461048FDF7C9FA4FF480510E4898
:104EF000FDF75AFB4FF42040ADF8000018208DF864
:104F0000030003208DF8020069460748FDF7B6FA52
:104F10004FF48040ADF8000004208DF8030069468E
:104F20000148FDF7ABFA08BD000C01402DE9F04146
:104F300006460C461746FFF729F94FF480511248F0
:104F4000FDF730FB0320FFF769F9C4F30740FFF7D3
:104F500065F9C4F30720FFF761F9E0B2FFF75EF9E6
:104F6000002505E0FF20FFF759F97055681C85B250
:104F7000BD42F7DB4FF480510348FDF715FBFEF708
:104F800091FABDE8F0810000000C014010B5FFF778
:104F9000FDF84FF480510E48FDF704FB9F20FFF70A
:104FA0003DF9FF20FFF73AF90404FF20FFF736F937
:104FB00044EA0024FF20FFF731F904434FF4805105
:104FC0000348FDF7F1FAFEF76DFA204610BD000028
:104FD000000C014010B513E04FF480510C48FDF770
:104FE000E1FA0520FFF71AF9FF20FFF717F900F0A3
:104FF000010000B905E04FF480510548FDF7D4FAEF
:10500000EAE700BF4FF480510148FDF7CDFA10BD2B
:10501000000C01402DE9F04107460E461446FFF70B
:10502000B5F8F0B2C0F58075AC4200DC254613E05F
:105030002A463146384600F027F8AC4200D10CE051
:105040002F442E44601B84B2B4F5807F02DD4FF400
:10505000807000E020460546EAE700BFFEF722FA2E
:10506000BDE8F08110B54FF480510648FDF79AFA7B
:105070000620FFF7D3F84FF480510248FDF794FA69
:1050800010BD0000000C01402DE9F04106460C4621
:105090001746FFF7E7FF4FF480511148FDF782FAFA
:1050A0000220FFF7BBF8C4F30740FFF7B7F8C4F3DB
:1050B0000720FFF7B3F8E0B2FFF7B0F8002504E0EF
:1050C000705DFFF7ABF8681C85B2BD42F8DB4FF4AA
:1050D00080510348FDF768FAFFF77CFFBDE8F081D7
:1050E000000C01400148007870470000400000209B
:1050F000014908707047000040000020002400258E
:1051000000264FF4966000F01DFF00BF09E0611C0F
:1051100023A0FBF7B7F841F2883000F013FF601CC2
:10512000C4B2FCF7C3F908B9032CF0DB032C08DA8E
:1051300028A0FBF7A7F8FFF751F90746FCF72AFE6E
:1051400002E02BA0FBF79EF8FFF748F90746FFF7B0
:10515000CFFF23E0FDF75CFD701C86B2642E11DBEF
:105160000026FFF73BF90746FFF7BCFFB84208D01F
:105170002BA0FBF787F83846FCF70CFE3846FFF704
:10518000B7FF00BF681C85B241F29410854202DB74
:10519000FCF748FD00250A2000F0D4FEDAE7000005
:1051A0005B53797374656D5D205769466920696E3C
:1051B0006974206661696C65642C2072657472790B
:1051C0002025642F3320696E2035732E2E2E0D0A74
:1051D000000000005B53797374656D5D205769466C
:1051E0006920636F6E6E65637465640D0A0000006C
:1051F0005B53797374656D5D2057694669206661FC
:10520000696C65642C2072756E6E696E67206C6FB8
:1052100063616C2D6F6E6C79206D6F64650D0A0093
:105220005B53746174654368616E67655D0D0A0068
:1052300070B504460D4610210848FDF7B3F97E20ED
:1052400000EA44063046FEF785FF2846FEF782FF57
:1052500010210248FDF7A8F970BD000000080140C8
:1052600030380A2801D2012070470020704700BF63
:105270007047000008B501210802FEF7CFFD10209D
:105280008DF803008020ADF8000003208DF80200A7
:1052900069460448FDF7F2F8002280210148FDF735
:1052A00085F908BD00200140704710B5044601F0A3
:1052B0000BF9012803D0204600F044FE08E003E08B
:1052C0004FF47A7000F005F8201EA4F10104F7D124
:1052D00010BD08B50021009103E000BF0099491CF2
:1052E0000091C0EBC001009A9142F6D808BD0000C1
:1052F00000BF054A128802F04002002AF9D0C2B26B
:10530000014B1B1D1A807047003801401CB510A0CE
:10531000FAF7B8FF1448012100238022CDE90010DC
:1053200012A1154801F09CF800F0B2FE13A0FAF7A4
:10533000A9FF1DA0FAF7A6FF09E0FBF79FFCC82014
:10534000FFF7B3FFFBF790FCC820FFF7AEFFF4E7D1
:105350005374617274696E67204672656552544F6A
:10536000532E2E2E0D0A000004000020737461726B
:10537000745F7461736B0000655C00085B464154A8
:10538000414C5D204672656552544F5320736368EB
:105390006564756C657220737461727420666169EE
:1053A0006C6564210D0A00005B464154414C5D2050
:1053B000436865636B20636F6E666967544F544141
:1053C0004C5F484541505F53495A450D0A00000063
:1053D00008B501210802FEF721FD10208DF8030019
:1053E0004020ADF8000003208DF802006946034814
:1053F000FDF744F8FDF7C8FD08BD0000002001409E
:105400004FF4A060FDF7F4FEFFF74EFF4FF4E130DC
:1054100000F0A4FC30A0FAF735FFFFF72BFFFFF7F1
:10542000D7FFFDF72FFF37A11020FEF773F8FEF727
:1054300005F837A0FAF726FFFFF740FDFFF7A6FDB6
:105440000446214637A0FAF71DFF3C48844206D1A6
:105450003BA12020FEF75EF8FDF7F0FF05E03BA141
:105460002020FEF757F8FDF7E9FF4FF4FA70FFF739
:105470001CFFFEF7B9FFFBF7D3FC37A0FAF702FFDA
:105480004FF46140FBF746FAFBF70AFAFEF746FADB
:10549000C820FFF70AFF3548FEF73AF940B933480C
:1054A000016833A0FAF7EEFE012000F0D5FB05E01D
:1054B00036A0FAF7E7FE002000F0CEFBFDF77CFCFB
:1054C00036A0FAF7DFFEFCF7C7FA39A0FAF7DAFEE2
:1054D000FFF71CFF00BFFEE73D3D3D20536D6172AD
:1054E0007420446F6F72204C6F636B202846726586
:1054F0006552544F53202B205769466929203D3D62
:105500003D0D0A00426F6F74696E672E2E2E0000EB
:105510004F4C454420696E697420646F6E650D0AB6
:1055200000000000573235513132382049443A20CA
:105530003078253036580D0A000000001840EF0082
:10554000466C617368204F4B00000000466C61732D
:1055500068204641494C0000524335323220696E82
:10556000697420646F6E650D0A000000440000201D
:105570004153363038204F4B2C20616464723A20FE
:105580003078253038580D0A00000000415336307D
:1055900038204641494C0D0A000000004B657970E7
:1055A000616420696E697420646F6E650D0A000085
:1055B000416C6C206D6F64756C65732072656164FD
:1055C000792C207374617274696E67204672656508
:1055D00052544F532E2E2E0D0A00000038B5FEF700
:1055E0007AF804460CB1002038BD0120FEF750F8CF
:1055F00004460CB10020F7E76B466322002101202E
:10560000FEF70AF9044634B9BDF8001004A0FAF711
:1056100039FE0120E8E70CA0FAF734FE0020E3E7AA
:105620007A68692077656E2079616E207A68656E88
:1056300067206368656E6720676F6E672120494445
:105640003A25640D0A0000007A68692077656E20AB
:1056500079616E207A68656E67207368692062617F
:1056600069210D0A000000002DE9F04105460E46B3
:105670002648076826480068001D00F0BFFB50B9A7
:105680002348006890F82C100120884021490968BF
:10569000814320480160681CD8B9D6B11E494868CA
:1056A0001B49096888601A4982680968CA601849F4
:1056B0000968091D8268516015490968091D8160E2
:1056C000154A134909684A6111460968491C116065
:1056D0001AE07C190E4800684460BC4207D20C48AE
:1056E0000168091D0D48006800F0B2FB0CE0084895
:1056F0000168091D0A48006800F0AAFB0948006813
:10570000844201D207480460BDE8F081A000002077
:105710008C000020A40000204C4D002094000020AC
:1057200090000020BC00002010B5044600F0B6FB3D
:105730002F480068401C2E4908602E48006840B978
:105740002C4804600846006801280DD100F028F9B3
:105750000AE02948006838B926480068C06AE16A4A
:10576000884201D82348046024480068401C23492B
:10577000086094F82C1001208840214909680843EA
:105780001F490860E16A01EB81011E4A02EB8101B9
:105790004868A0608268E260211D82685160816073
:1057A000E16A01EB8101174A02EB81026261E16A61
:1057B00001EB8101134A52F82110491CE26A02EB05
:1057C0008202104B43F8221000F07AFB0A4800686E
:1057D00068B108480068C06AE16A884207D24FF0A1
:1057E000805009490860BFF34F8FBFF36F8F10BD22
:1057F0009C0000208C000020A8000020B8000020A1
:10580000A4000020984C002004ED00E010B516E044
:1058100000F044FB0C48C068C468201D00F0EEFA9C
:105820000A480068401E0949086009480068401E8F
:105830000749086000F044FB204600F00BF80448DC
:1058400000680028E4D110BD384D00209C000020E5
:105850009800002010B50446206B00F041FB204664
:1058600000F03EFB10BD000030B54FF488431548F2
:1058700000F007042CB1C01D20F00700114C041BE0
:105880001B1B0246104C226000240F4D6C60D01888
:10589000083820F007000D4C206000240B4D2D68C7
:1058A0006C600A4D2D682C601146441A4C60074C00
:1058B00024680C60064D4C682C60064D4C682C60CA
:1058C00030BD0000980800206C000020740000200B
:1058D0007C0000207800002000BFFFF797FF0648FB
:1058E00000680128F9D94FF0805004490860BFF3DF
:1058F0004F8FBFF36F8FF0E7984C002004ED00E06E
:105900002DE9F04106460D4617469846069C0DB90E
:10591000246000E02760E66325640121204600F052
:1059200065FCBDE8F0812DE9FF5F80460E4691469B
:10593000DDE90E7A109CA9F10100216B01EB800BCF
:105940002BF0070B7EB1002507E0715D04F13400F8
:105950004155705D00B902E06D1C102DF5D300BFFC
:10596000002143200155052F00D30427E762201DA5
:1059700000F06BFA04F1180000F067FA2461C7F137
:105980000500A061646241465846039A00F052F94E
:105990002060BAF1000F01D0CAF80040BDE8FF9FB7
:1059A00010B5002407E004EB84010F4A02EB8100EC
:1059B00000F03EFA641C052CF5D30C4800F038FAD0
:1059C0000B4800F035FA0B4800F032FA0A4800F0B4
:1059D0002FFA0A4800F02CFA0448094908600448E4
:1059E0000849086010BD0000984C0020FC4C0020C5
:1059F000104D0020244D0020384D00204C4D00203B
:105A0000900000209400002010B50146164800E0E8
:105A1000006803688B42FBD30246436813448B4201
:105A200004D143684C682344436001460A464B68EE
:105A300013440468A34211D10C4C03682468A342A8
:105A400008D04B680468646823444B6003681B6893
:105A50000B6005E0054B1B680B6001E003680B6001
:105A6000884200D0016010BD6C000020740000204E
:105A700070B5054600F012FAA86B08B9012400E0E1
:105A8000002400F01DFA204670BD0000094800689F
:105A9000006808B9012000E0002020B14FF0FF307D
:105AA0000549086005E003480068C06800680249CD
:105AB0000860704790000020BC00002000BFBF209D
:105AC00080F31188BFF34F8FBFF36F8F00BF00BF0C
:105AD000FEE770B5044600F0E1F994F9455010E096
